{
  "contractName": "SensorData",
  "abi": [
    {
      "anonymous": false,
      "inputs": [
        {
          "indexed": true,
          "internalType": "address",
          "name": "sensor",
          "type": "address"
        },
        {
          "indexed": false,
          "internalType": "int256",
          "name": "value",
          "type": "int256"
        },
        {
          "indexed": false,
          "internalType": "uint256",
          "name": "timestamp",
          "type": "uint256"
        }
      ],
      "name": "NewReading",
      "type": "event"
    },
    {
      "inputs": [
        {
          "internalType": "address",
          "name": "",
          "type": "address"
        },
        {
          "internalType": "uint256",
          "name": "",
          "type": "uint256"
        }
      ],
      "name": "sensorReadings",
      "outputs": [
        {
          "internalType": "uint256",
          "name": "timestamp",
          "type": "uint256"
        },
        {
          "internalType": "int256",
          "name": "value",
          "type": "int256"
        }
      ],
      "stateMutability": "view",
      "type": "function",
      "constant": true
    },
    {
      "inputs": [
        {
          "internalType": "int256",
          "name": "_value",
          "type": "int256"
        }
      ],
      "name": "storeReading",
      "outputs": [],
      "stateMutability": "nonpayable",
      "type": "function"
    },
    {
      "inputs": [
        {
          "internalType": "address",
          "name": "_sensor",
          "type": "address"
        }
      ],
      "name": "getReadings",
      "outputs": [
        {
          "components": [
            {
              "internalType": "uint256",
              "name": "timestamp",
              "type": "uint256"
            },
            {
              "internalType": "int256",
              "name": "value",
              "type": "int256"
            }
          ],
          "internalType": "struct SensorData.Reading[]",
          "name": "",
          "type": "tuple[]"
        }
      ],
      "stateMutability": "view",
      "type": "function",
      "constant": true
    }
  ],
  "bytecode": "0x608060405234801561000f575f80fd5b5061058f8061001d5f395ff3fe608060405234801561000f575f80fd5b506004361061003f575f3560e01c80633c30150b1461004357806341d9d3891461005f578063d731092314610090575b5f80fd5b61005d600480360381019061005891906102b9565b6100c0565b005b61007960048036038101906100749190610371565b61019e565b6040516100879291906103cd565b60405180910390f35b6100aa60048036038101906100a591906103f4565b6101d7565b6040516100b79190610512565b60405180910390f35b5f803373ffffffffffffffffffffffffffffffffffffffff1673ffffffffffffffffffffffffffffffffffffffff1681526020019081526020015f20604051806040016040528042815260200183815250908060018154018082558091505060019003905f5260205f2090600202015f909190919091505f820151815f01556020820151816001015550503373ffffffffffffffffffffffffffffffffffffffff167f6b273aea27ee0c5aaf05af9060be3bcab7a95fadb3aabaa6f0cd4bcba3feb57a8242604051610193929190610532565b60405180910390a250565b5f602052815f5260405f2081815481106101b6575f80fd5b905f5260205f2090600202015f9150915050805f0154908060010154905082565b60605f808373ffffffffffffffffffffffffffffffffffffffff1673ffffffffffffffffffffffffffffffffffffffff1681526020019081526020015f20805480602002602001604051908101604052809291908181526020015f905b82821015610277578382905f5260205f2090600202016040518060400160405290815f820154815260200160018201548152505081526020019060010190610234565b505050509050919050565b5f80fd5b5f819050919050565b61029881610286565b81146102a2575f80fd5b50565b5f813590506102b38161028f565b92915050565b5f602082840312156102ce576102cd610282565b5b5f6102db848285016102a5565b91505092915050565b5f73ffffffffffffffffffffffffffffffffffffffff82169050919050565b5f61030d826102e4565b9050919050565b61031d81610303565b8114610327575f80fd5b50565b5f8135905061033881610314565b92915050565b5f819050919050565b6103508161033e565b811461035a575f80fd5b50565b5f8135905061036b81610347565b92915050565b5f806040838503121561038757610386610282565b5b5f6103948582860161032a565b92505060206103a58582860161035d565b9150509250929050565b6103b88161033e565b82525050565b6103c781610286565b82525050565b5f6040820190506103e05f8301856103af565b6103ed60208301846103be565b9392505050565b5f6020828403121561040957610408610282565b5b5f6104168482850161032a565b91505092915050565b5f81519050919050565b5f82825260208201905092915050565b5f819050602082019050919050565b6104518161033e565b82525050565b61046081610286565b82525050565b604082015f82015161047a5f850182610448565b50602082015161048d6020850182610457565b50505050565b5f61049e8383610466565b60408301905092915050565b5f602082019050919050565b5f6104c08261041f565b6104ca8185610429565b93506104d583610439565b805f5b838110156105055781516104ec8882610493565b97506104f7836104aa565b9250506001810190506104d8565b5085935050505092915050565b5f6020820190508181035f83015261052a81846104b6565b905092915050565b5f6040820190506105455f8301856103be565b61055260208301846103af565b939250505056fea26469706673582212205d4b61afc19bcc6d756b4493bb56133585a5b53919a4be201bec61c2f1453f9564736f6c63430008140033",
  "immutableReferences": {},
  "source": "// SPDX-License-Identifier: MIT\npragma solidity ^0.8.0;\n\ncontract SensorData {\n    struct Reading {\n        uint256 timestamp;\n        int256 value;\n    }\n\n    mapping(address => Reading[]) public sensorReadings;\n\n    event NewReading(address indexed sensor, int256 value, uint256 timestamp);\n\n    function storeReading(int256 _value) public {\n        sensorReadings[msg.sender].push(Reading(block.timestamp, _value));\n        emit NewReading(msg.sender, _value, block.timestamp);\n    }\n\n    function getReadings(address _sensor) public view returns (Reading[] memory) {\n        return sensorReadings[_sensor];\n    }\n}\n",
  "sourcePath": "/home/joshua/Academics/IOT/middle-node/contracts/SensorData.sol",
  "compiler": {
    "name": "solc",
    "version": "0.8.20+commit.a1b79de6.Emscripten.clang"
  },
  "schemaVersion": "3.4.16",
  "updatedAt": "2025-03-25T05:53:34.477Z",
  "networkType": "ethereum",
  "devdoc": {
    "kind": "dev",
    "methods": {},
    "version": 1
  },
  "userdoc": {
    "kind": "user",
    "methods": {},
    "version": 1
  }
}